:020000040800F2
:1000000088C8002069010008A5130008B511000880
:1000100073130008DF020008031F0008000000003F
:10002000000000000000000000000000311800087F
:10003000E302000800000000B9140008DD19000800
:100040008301000883010008830100088301000880
:100050008301000883010008830100088301000870
:100060008301000883010008830100088301000860
:100070008301000883010008830100088301000850
:100080008301000883010008830100088301000840
:100090008301000883010008830100088301000830
:1000A0008301000883010008830100088301000820
:1000B000D11A0008FD1A0008830100088301000816
:1000C0008301000883010008830100088301000800
:1000D00083010008830100080D1D0008830100084A
:1000E000830100088301000883010008000000006C
:1000F0000000000000000000000000000000000000
:1001000000000000000000008301000883010008D7
:1001100083010008830100088301000883010008AF
:10012000830100088301000883010008830100089F
:1001300083010008BD040008830100088301000852
:10014000830100088301000883010008830100087F
:10015000DFF80CD000F082F800480047497800082A
:1001600088C80020704700000648804706480047BE
:10017000FEE7FEE7FEE7FEE7FEE7FEE7FEE7FEE757
:10018000FEE7FEE7E51900085101000840EA010317
:100190009B070AD102E008C9121F08C0042AFAD23C
:1001A00003E011F8013B00F8013B521EF9D2704701
:1001B000D2B201E000F8012B491EFBD270470022A9
:1001C000F6E710B504460846114602462046FFF7FA
:1001D000EFFF204610BD0146002000E0401C0A5CF5
:1001E000002AFBD1704730B504460020034600E0EA
:1001F0005B1C934203D2E05CCD5C401BF8D030BD69
:10020000034611F8012B00F8012B002AF9D11846FA
:10021000704730B500252B4600E05B1C934205D2A9
:10022000C45CCD5C651B01D1002CF6D1284630BDE5
:1002300030B50B46014600202022012409E021FAB6
:1002400002F59D4205D303FA02F5491B04FA02F5B3
:100250002844151EA2F10102F1DC30BD064C074D09
:1002600006E0E06840F0010394E807009847103486
:10027000AC42F6D3FFF770FFF0DC000810DD000899
:1002800070B501EB020410F8015B15F0070301D112
:1002900010F8013B2A1106D110F8012B03E010F8E9
:1002A000016B01F8016B5B1EF9D12B0706D400230B
:1002B00001E001F8013B521EFBD50CE010F8013BB8
:1002C00002F10202A1EB030303E013F8015B01F862
:1002D000015B521EF9D5A142D5D3002070BD00BFED
:1002E000FEE77047014948617047000000900240F6
:1002F00029B1064AD2690243044BDA6104E0034A99
:10030000D2698243014BDA617047000000900240DD
:1003100030B10749896941F00201054A916105E060
:100320000349896921F00201014A91617047000087
:100330000090024030B50024104D286000BF18E046
:1003400000EB04134FF000451D6044F2F0555D6072
:10035000C4EB441505EB841501EB05159D60551E96
:10036000A54204D900EB04151035DD6000E0D8602B
:10037000641C9442E4D3024DE86030BDCC040020FC
:100380000090024021B1426822F00042426003E046
:10039000426842F0004242607047000030B10749B5
:1003A000896941F40051054A916105E00349896971
:1003B00021F40051014A9161704700000090024011
:1003C00030B500240F4D286000BF15E000EB04138A
:1003D0004FF480151D60C4EB441505EB841501EB4B
:1003E00005159D60551EA54204D900EB0415103576
:1003F000DD6000E0D860641C9442E7D3024D2861C0
:1004000030BD0000C80400200090024010B501215A
:10041000880301F063F800214FF4804001F05EF89A
:1004200010BD0021014600E0491E0029FCD17047A3
:100430000348806940F480100149886170470000DA
:10044000009002400148006880687047C80400209E
:1004500001460868C0F30D407047000000B5002257
:100460000F480068006810F0004F16D10C48006873
:10047000006810F4004F10D109480068006810F4BB
:10048000807F0AD006480068006810F4007F04D01E
:1004900003480068FFF7DCFF0246104600BD00007D
:1004A000CC04002000200449096811F0010F01D09C
:1004B000012000E0002070470090024010B501E0EC
:1004C00001F008F9FFF7CAFF0028F9D14020FFF733
:1004D00009FF4FF48030FFF705FF10BD2DE9F0470D
:1004E00086B004460D4600260027B046DFF820926D
:1004F000B2468848076927F01C0701A801F01EF8DA
:10050000DDF808908448814505D38448814502D2AE
:1005100047F0080709E08148814505D37C488145BB
:1005200002D247F00C0700E000BF7A4807614FF4A1
:1005300000420021284600F08FFA18B9002006B0CA
:10054000BDE8F0877648FFF76CFF2068002848D0A8
:1005500000BF0AF1010A0121284600F029F910F034
:10056000040F02D16F488245F3D36E48824501D112
:100570000020E4E74FF0000A4FF4805200212846A3
:1005800000F06AFA08B90020D9E700BF0AF1010AB1
:100590000121284600F00CF910F0200F02D161482B
:1005A0008245F3D35F48824501D10020C7E74FF071
:1005B000000A1021284600F0FBF8064616F0040F4A
:1005C00003D04FF40060206201E00020206216F0AA
:1005D000020F02D00020606116E04FF4804060619D
:1005E00012E0206AC0F3CF006169C1F34F0140EA15
:1005F00001020021284600F02FFA08B900209EE7EA
:100600006FF07F40FFF70DFF4248076846480740FC
:10061000D4E901010843E16808432169084361699D
:100620000843A1690843E1690843216A0843616AF4
:100630000843A16A0843E16A0843216B0843616BE0
:100640000843074333480760D4E90E010843216C8F
:100650000843616C0843A16C0843E16C0843216DB9
:100660000843616D08432B494860A06D8860E06DC8
:10067000C860084687694FF641700740D4E91810F2
:1006800040EA0140A16E0843E16E0843216F084330
:10069000616F084307431F488761D4E91E0108437F
:1006A0001C49C8612148876921480740D4E92001D5
:1006B0000843D4F888100843D4F88C100843D4F8C1
:1006C00090100843D4F894100843D4F898100843C5
:1006D000D4F89C100843D4F8A010084307431348EB
:1006E0008761D4E929010843D4F8AC100843D4F851
:1006F000B0100843D4F8B41040EA8100D4F8B81020
:10070000084340F4000009490860012017E7000091
:100710000087930300800240002D3101C00E1602B5
:10072000FFFF0F00FFFF04000F8120FF0090024039
:10073000233FDEF810B50B794C7943EA0422094BCC
:1007400003441A64CB781B068C7843EA04434C7844
:1007500043EA04230C7843EA0402024B03445A643C
:1007600010BD00000080024030B10749096841F027
:100770000401054A116005E00349096821F00401FC
:10078000014A1160704700000080024030B1074903
:10079000096841F00801054A116005E0034909684C
:1007A00021F00801014A11607047000000800240FA
:1007B00010B50246002300241348036903F01C030C
:1007C0004FF4784000EAC22003434FF4F86000EA97
:1007D0008110034323F0020343F001030A4803613D
:1007E00000BF641C0848036913F0010F02D00748DA
:1007F0008442F6D30548844201D1002010BD02484E
:10080000406980B2FAE7000000800240FFFF040068
:1008100010B50548006830B100F084FD02480021A1
:100820000A460B460EC010BD10C100201EB50021A7
:100830006C4600221346944684E80C10214A126844
:10084000126812F0004F10D0002200921E4A526926
:1008500012F0800F04D080221B4B5A6100229A6054
:100860006A461CCA80E81C001EBD164A126812683F
:1008700012F4004F16D1134A1268126812F4807FE6
:1008800010D0104A1268126812F4007F0AD00D4A84
:1008900012681268C2F30D42111F0A4A1268926868
:1008A000019200E000210091064A12680292054A76
:1008B0001268D268034B1A606A461CCA80E81C00A2
:1008C000D2E70000CC0400200090024003480068FA
:1008D00040F00100014908607047000000900240AC
:1008E00000B50120FFF752FFFFF7A2FD0120FFF73F
:1008F0003BFF0120FFF752FD0120FFF709FD00BD7E
:100900000021016041608160C160016141618161DC
:10091000C161016241628162C162016341638163BD
:10092000C163402101642021416400218164C164CC
:10093000016541658165C1650166802141660021CF
:100940008166C166016741678167C1674FF0806159
:10095000C0F880104910C0F884104910C0F8881001
:10096000C910C0F88C100021C0F89010C0F8941085
:10097000C0F89810C0F89C10C0F8A0104FF000719B
:10098000C0F8A4100021C0F8A8104FF40031C0F83E
:10099000AC104912C0F8B0100021C0F8B410C0F873
:1009A000B810704770B5054624480068006810F01C
:1009B000004F1DD000F080F8214800F0F9FF02221E
:1009C00020492148FFF7FCFC042220492048FFF77A
:1009D000B1FC002406E01E4901EB04100121FFF7E1
:1009E000D1FC641C042CF6DBFFF77AFF002070BDFD
:1009F000C5F30C0011490968486010480068006898
:100A000040F040500D49096808600C4800680068D3
:100A100040F000400949096808600E48406910F03C
:100A2000040F04D004200B494861002048600348AB
:100A30000068C068014908600120D8E7C8040020A8
:100A40001A00002054AF00207497002094970020D3
:100A5000349700200090024030B503460024002562
:100A60001248046904F01C044FF4784000EAC320E3
:100A700004434FF4F86000EA8110044344F0020498
:100A800044F0010409484261046100BF6D1C07483D
:100A9000046914F0010F02D005488542F6D30448DA
:100AA000854201D1002030BD0120FCE700800240DA
:100AB000FFFF040072B6704700B5AFB0002000F031
:100AC00091F9062000F000FEFFF7A0FCFFF7FEFE04
:100AD00000BFFFF7E7FC0128FBD06846FFF710FFD7
:100AE00001200090002007904FF400700A90002031
:100AF0000B900E90119013901490159020904FF041
:100B00000070219000112390002025902690042051
:100B10002890C005299040122A9080012B90401205
:100B20002C9040002E9001216846FFF7D7FC012150
:100B30000248FFF7DDFB2FB000BD000040000100C0
:100B400062B6704730B5044604254FF4302000F0FB
:100B5000ADF80546042D17D10C48006940F002009D
:100B60000A49086108464461006940F04000086194
:100B70004FF4302000F09AF805460448006941F629
:100B8000FD71084001490861284630BD002002403F
:100B900004200C49C96801F00101012901D101209B
:100BA0000EE00849C96811F0040F01D0022007E0E7
:100BB0000449C96811F0100F01D0032000E004209F
:100BC000704700000020024010B5002300BF07E07E
:100BD000054CA04203D89C0050F824400C605B1CDC
:100BE0009342F5D310BD0000FBFF03082DE9F0414F
:100BF00004460D461646002700BF0FE00948844210
:100C00000AD855F82710204600F012F8042801D120
:100C1000241D02E0BDE8F081FCE77F1CB742EDD364
:100C2000F8E70000FBFF030810B500F033F810BD33
:100C3000F0B504460D4604260027F00200F036F811
:100C40000646042E22D11248006940F001001049E6
:100C500008612580F00200F029F80646042E0ED126
:100C6000A71C280C3880F00200F020F8064608483F
:100C7000006941F6FE7108400549086106E0044834
:100C8000006941F6FE710840014908613046F0BD37
:100C9000002002400248034948600348486070470A
:100CA0002301674500200240AB89EFCD00B5024625
:100CB0000423FFF76DFF034603E0FFF769FF0346D8
:100CC000521E012B01D1002AF7D102B90523184683
:100CD00000BD03467047000008B50420ADF80000D1
:100CE00003208DF8020018208DF80300694639486A
:100CF00000F07EF80620ADF8000003208DF8020019
:100D000018208DF803006946334800F071F843F667
:100D10002010ADF8000003208DF8020018208DF897
:100D2000030069462D4800F063F801214FF02010C0
:100D300000F0E6F80B20ADF8000003208DF802006B
:100D400004208DF803006946224800F051F84FF462
:100D50008060ADF8000003208DF8020004208DF8BB
:100D6000030069461D4800F043F80820ADF8000074
:100D700003208DF8020004208DF803006946164810
:100D800000F036F84FF4F850ADF8000003208DF86D
:100D9000020004208DF803006946114800F028F88D
:100DA0001020ADF8000000208DF8030069460A48C5
:100DB00000F01EF84FF48070ADF8000003208DF8AD
:100DC000020018208DF803006946024800F010F870
:100DD00008BD00000008014000100140000C014067
:100DE000001401400149086070470000DC00204207
:100DF0002DE9F041002200230024002500260027D1
:100E000091F803C00CF00F0291F803C01CF0100F12
:100E100003D091F802C04CEA0202B1F800C01CF005
:100E2000FF0F31D0066800242BE04FF0010C0CFAC4
:100E300004F5B1F800C00CEA0503AB4220D1A500CF
:100E40004FF00F0C0CFA05F7BE4302FA05FC4CEA12
:100E5000060691F803C0BCF1280F06D14FF0010C33
:100E60000CFA04FCC0F814C00AE091F803C0BCF10D
:100E7000480F05D14FF0010C0CFA04FCC0F810C06B
:100E8000641C082CD1D30660B1F800C0BCF1FF0F80
:100E900034DD466800242EE004F1080C4FF0010810
:100EA00008FA0CF5B1F800C00CEA0503AB4221D1F9
:100EB000A5004FF00F0C0CFA05F7BE4302FA05FC33
:100EC0004CEA060691F803C0BCF1280F05D104F1E5
:100ED000080C08FA0CF8C0F8148091F803C0BCF1B3
:100EE000480F07D104F1080C4FF0010808FA0CF87C
:100EF000C0F81080641C082CCED34660BDE8F08199
:100F0000F0B5002200230024002500F00046B6F1D1
:100F1000004F02D11C4EF46901E01B4E7468C0F30F
:100F2000034582B200F44016B6F5401F08D124F004
:100F30007064154E766826F07066134F7E6012E07E
:100F400000F48016B6F5801F06D1032606FA05F3D5
:100F50009C4344F0706406E0460D360102FA06F642
:100F6000B44344F0706421B1460D360102FA06F62E
:100F7000344300F00046B6F1004F02D1024EF46156
:100F800001E0014E7460F0BD000001404161704716
:100F9000016170471CB5044672B6FFF745FE012299
:100FA00069461548FFF710FE012201A91248001DED
:100FB000FFF70AFE0098401C01D1012100E000214A
:100FC0000198401C01D1012000E0002001430CD019
:100FD0000A48009040F6FD0001900748FFF7B2FD77
:100FE000022269460448FFF701FEDDE90001C4E979
:100FF000000162B61CBD000000F803080EC0D33C1F
:101000000D4909680D4AD2F8EC2711440C4A1268C0
:1010100001EB02004FF000010A4A11704FF0260167
:10102000517090704FEA1021D1704FEA1041117148
:101030004FEA106151717047E8F7FF1F00F0FF1F82
:10104000F0F7FF1F1A0000202DE9F041002440486E
:10105000006805883E48006846883D480068077972
:101060003C49081908223CA1FFF790F808340D20EC
:10107000384908550A21601C0446364A1154114665
:101080000819122237A1FFF781F8123431490819E3
:101090002A4639A100F04EFF2044C4B20D202D494C
:1010A00008550A21601CC0B204462A4A1154114650
:1010B0000819122231A1FFF769F804F11200C4B235
:1010C0002449081932462CA100F034FF2044C4B250
:1010D0000D20204908550A21601CC0B204461D4A53
:1010E000115411460819142229A1FFF74FF804F1F1
:1010F0001400C4B2AA1B174908191FA100F01AFF57
:101100002044C4B20D20134908550A21601CC0B206
:101110000446104A1154114608190A2222A1FFF769
:1011200035F804F10A00C4B20A4908193A4612A176
:1011300000F000FF2044C4B20D20064908550A21E2
:10114000601CC0B20446034A11541046BDE8F08149
:10115000E0040020262C0020C4DAB4E6D0C5CFA2DB
:1011600000000000D7DCC4DAB4E6CAFDA3A8D7D6D5
:10117000BDDAA3A9A3BA000025640000D2D1D3C36D
:10118000C4DAB4E6A3A8D7D6BDDAA3A9A3BA0000EF
:10119000CAA3D3E0C4DAB4E6CAFDA3A8D7D6BDDAA1
:1011A000A3A9A3BA00000000CAB9D3C3B1EACABE5A
:1011B000A3BA000010B5FEF7D5FF00BFFEE71FB5CC
:1011C0000121084600F09AF940F60F6401218807D2
:1011D00000F0A8FC4FF4A06000F046F91C208DF848
:1011E0000C0003208DF80D0000208DF80E0001206A
:1011F0008DF80F0003A800F0F5F80121880700F032
:10120000A0FC00220121880700F0BBFC00214FF068
:10121000804000F099FCADF800400020ADF80600D9
:10122000ADF80200C820ADF804006946C00600F021
:10123000B7FC0121880700F084FC012211469007C9
:1012400000F09FFC00214FF0804000F0A6FC01213F
:10125000880700F079FC1FBD00B587B0FFF7D0FE0E
:1012600006F094FB06F098FD00200690059004908F
:101270000C4800F09DFB0C4B0C4A00218DE80E0041
:1012800004AB05AA06A90A4806F04CFE084806F079
:1012900099FE074802F008F8054806F0FFFE07B07F
:1012A00000BD00001A0000200D470008F9470008A3
:1012B000CC05002010B50446FFF7AAFA15480068CF
:1012C000201AFA2805D3134804600AF0FDFF00F045
:1012D000EDFC11480068201A41F28831884203D39E
:1012E0000D48046003F066F90C480068201AB0F558
:1012F000FA7F03D30948046001F060FA08480068E7
:10130000201A4EF66021884203D30548046001F09C
:10131000BBF810BD000000200400002008000020E1
:101320000C00002010B5024803F092FA10BD000036
:10133000CC050020F8B504460D461746FD2F00DD0C
:10134000F8BD68460CF00EF9002607E028780099F1
:1013500008700098401C00906D1C761CBE42F5DBA6
:1013600068460CF0FFF83A462046009902F024FC4B
:10137000E6E700BFFEE7000070B5054607480068D5
:1013800050B1064804680020044908602246044918
:101390000620FFF7CFFF00BF70BD00003400002023
:1013A00094060020704708B500214FF0006000F05F
:1013B00079F800214FF0006000F074F84FF4A0605D
:1013C00000F052F83D208DF8000002208DF8010059
:1013D00000208DF8020001208DF80300684600F01F
:1013E00001F808BD70B5002100230F22C4784CB36A
:1013F0001A4C246804F4E064C4F5E0644FEA142154
:10140000C1F1040322FA01F2447804FA03F184786A
:1014100004EA020444EA01014FEA0111104C067883
:10142000A155047804F01F054FF0010404FA05F4F7
:1014300005784FEA65154FF0E02606EB8505C5F8FF
:10144000004109E0047804F01F040125A540054C83
:101450000678761144F8265070BD00000CED00E0CF
:1014600000E400E080E100E002490143024A11602B
:10147000704700000000FA050CED00E010B50028F0
:1014800007DA0A07130E054A00F00F04241F13554C
:1014900003E00A07130E024A135410BD18ED00E0D2
:1014A00000E400E0024A0A400243024B1A6070471F
:1014B00080FFFF1F08ED00E07047000029B1064AD9
:1014C00052690243044B5A6104E0034A5269824361
:1014D000014B5A61704700000010024029B1064AD2
:1014E000926A0243044B9A6204E0034A926A82437E
:1014F000014B9A62704700000010024029B1064A71
:10150000D2690243044BDA6104E0034AD2698243A0
:10151000014BDA61704700000010024029B1064A11
:1015200092690243044B9A6104E0034A9269824340
:10153000014B9A6170470000001002402DE9F04114
:1015400000210022002300240025002600278C46CD
:10155000DFF86481D8F8048008F00C0121B1042977
:1015600007D0082959D109E0DFF85081C0F8008080
:1015700058E0DFF84881C0F8008053E0DFF8388198
:10158000D8F8048008F47012DFF82C81D8F80480B1
:1015900008F48033920C0D2A01D0921C00E0062240
:1015A00033B9DFF81C8102FB08F8C0F8008033E093
:1015B000DFF80481D8F82C8008F48035DFF8F88053
:1015C000D8F82C8008F00F0808F1010645B9DFF8BB
:1015D000EC80B8FBF6F808FB02F8C0F800801BE0CE
:1015E000DFF8D480D8F82C80C8F3031808F101077D
:1015F000DFF8C480D8F82C80C8F3032808F1020C67
:10160000DFF8B880B8FBF7F808FB0CF8B8FBF6F881
:1016100008FB02F8C0F8008004E0DFF8A080C0F802
:10162000008000BF00BFDFF89080D8F8048008F089
:10163000F0010909DFF88C8018F80140D0F800802B
:1016400028FA04F8C0F80480DFF86C80D8F8048029
:1016500008F4E061090ADFF86C8018F80140D0F85E
:10166000048028FA04F8C0F80880DFF84C80D8F825
:10167000048008F46051C90ADFF8488018F8014076
:10168000D0F8048028FA04F8C0F80C80DFF828802D
:10169000D8F8048008F44041890BDFF8288008F16D
:1016A000100818F80140D0F80C80B8FBF4F8C0F826
:1016B0001080BDE8F08100000010024000127A00A6
:1016C00000093D00B20400200149C87170470000C4
:1016D000001002400EB51148FFF7A8F80F49684600
:1016E0000EC90EC00D48006840F2DC51884205D892
:1016F0000A48026841680A48FEF748FD4FF000407A
:101700000649896808600748406910F0800F04D0D6
:10171000802004494861002088600EBD10C100206F
:1017200034BB00200090024021B1028842F0400208
:10173000028004E002884FF6BF731A4002807047AF
:1017400000B587B001210520FFF7E8FE012108035D
:10175000FFF7E4FEE020ADF8180003208DF81A0032
:1017600018208DF81B0006A91948FFF741FB10202F
:10177000ADF8180003208DF81A0010208DF81B001A
:1017800006A91348FFF734FB0020ADF804004FF41E
:101790008270ADF806000020ADF80800ADF80A0030
:1017A000ADF80C004FF40070ADF80E000020ADF85D
:1017B0001000ADF812000720ADF8140001A905488B
:1017C00000F018F801210348FFF7AEFF07B000BD95
:1017D00000080140003001400246002013890B42FE
:1017E00001D0012000E00020704701468889704741
:1017F0008181704710B50022028802F441520B88A3
:101800004C8823438C882343CC8823430C8923436F
:101810004C8923438C892343CC8923431A43028078
:10182000838B4FF2FF74234083830B8A038210BDA6
:101830007047000070B505461648007810BB164882
:101840000068F8B101231448006882B213491448B3
:1018500000680AF077FD044600200F49086024B9AB
:101860000F48006808F0F6FF12E00E480078401CB0
:101870000C49087008460078322809DB00200870FF
:1018800000BF05E00448006810B10020024908606C
:1018900070BD00002000002044000020700C0020DB
:1018A000540400204800002010B500F001F810BDDD
:1018B000002000213A4A126842F48032384B1A6004
:1018C00000BF374A126802F40031401C11B9B0F56C
:1018D000A06FF6D1324A126812F4003F01D0012104
:1018E00000E0002101295AD12E4A126842F010026C
:1018F0002C4B1A601A46126822F003021A601A462C
:10190000126842F002021A60254A5268244B5A605B
:101910001A4652685A601A46526842F480625A6007
:101920001A46D26A204B1A401D4BDA621A46D26A16
:101930001E4B1A431A4BDA621A46126842F0806252
:101940001A6000BF164A126812F0006FFAD0144AEB
:10195000526822F47C12124B5A601A46526842F4C2
:10196000E8125A601A46126842F080721A6000BF8C
:101970000B4A126812F0007FFAD0094A526822F02E
:101980000302074B5A601A46526842F002025A603C
:1019900000BF034A526802F00C02082AF9D17047CE
:1019A000001002400020024000F0FEFF440601004B
:1019B00010B5044620780849087060784870A0780F
:1019C0008870E078C8702079087160794871214684
:1019D0000020FEF7AFFE10BD7005002010B500F02E
:1019E00093F910BD10B51648006840F00100144985
:1019F0000860084640681349084011494860084695
:101A00000068114908400E4908600846006820F443
:101A1000802008600846406820F4FE0048600846C0
:101A2000006820F0A05008604FF47F00886000201C
:101A3000C862FFF739FF4FF000600449086010BD2D
:101A4000001002400000FFF0FFFFF6FE08ED00E08E
:101A500010B586B0FFF7C6FF00234FF416520221DF
:101A6000184601F07DFF01F067FF01214FF4E030DF
:101A7000FFF724FD012140F27D20FFF74FFDFFF726
:101A800092FCFFF729F9FFF717F801A8FFF756FDB9
:101A900064210198B0FBF1F4B4F1807F00D311E030
:101AA00024F07F40401E4FF0E02148610F214FF0AD
:101AB000FF30FFF7E3FC00204FF0E02188610720B2
:101AC000086100BF0121881EFFF7D8FC06B010BDD9
:101AD00010B50121880700F043F860B101218807A3
:101AE00000F02CF80121880700F02BF8024800686C
:101AF0000A300149086010BD9804002010B501218A
:101B0000074800F02DF848B10121054800F016F80B
:101B10000121034800F015F806F0D0FF10BD0000C9
:101B20000004004021B1028842F08002028004E0FB
:101B300002884FF67F731A4002807047CA430282C0
:101B40007047CA430282704721B1028842F0010205
:101B5000028004E002884FF6FE731A40028070474C
:101B600030B50246002000230024158A05EA01034F
:101B7000958905EA010413B10CB1012000E00020B1
:101B800030BD10B51AB183890B43838104E083898A
:101B9000CC43A4B22340838110BD818470470000F0
:101BA000002202881D4B98420ED01D4B98420BD04C
:101BB000B0F1804F08D01B4B984205D01A4B984289
:101BC00002D01A4B984204D14FF68F731A404B88BB
:101BD0001A43174B984207D0164B984204D04FF641
:101BE000FF431A40CB881A4302808B8883850B8879
:101BF00003850A4B98420BD0094B984208D00E4BF4
:101C0000984205D00D4B984202D00D4B984201D11D
:101C10000B7A03860123838270470000002C014069
:101C2000003401400004004000080040000C004067
:101C300000100040001400400040014000440140FA
:101C40000048014010B504460F480068201A41F2D0
:101C50008831884217D30C4804600C48007830B1B2
:101C60000C220BA10120FFF734F807F08BFC0B4886
:101C7000007840B90120094908700C2208A1FFF73B
:101C800028F80BF0B7F910BD2C0000202000002030
:101C90005443505F52657472790D0A002100002090
:101CA0005544505F52657472790D0A0010B51048A2
:101CB0000078D8B10F480078401C0E4908700846DB
:101CC0000078552812DD00230B4802880B490C4888
:101CD00000680AF087FF0B480168094800680AF0AD
:101CE0000BFE0020024908700249087010BD000078
:101CF0007C0400207D0400208C0400208804002047
:101D000084040020800400207047000010B540F2D9
:101D100025510B4800F031F8012806D140F2255139
:101D2000074800F00FF806F0D1FE40F22771044892
:101D300000F023F8012801D106F0D0FE10BD00000C
:101D40000044004010B500220023A1F510646A3C55
:101D500000D100BF0A1201249440A3B2DC430480E6
:101D600010BD21B1828942F40052828104E082894F
:101D70004DF6FF731A408281704770B5024600230A
:101D8000002400250020A1F510666A3E00D100BFA6
:101D9000C1F3421501F01F04012606FA04F4012DD7
:101DA00002D19689344006E0022D02D1168A3440D1
:101DB00001E0968A34400B12012606FA03F31688D6
:101DC000334014B10BB1012000E0002070BDF0B52C
:101DD0000024002500260023A1F510676A3F00D1EA
:101DE00000BF0346C1F3421401F01F05012707FAA3
:101DF00005F6012C01D10C3304E0022C01D1103383
:101E000000E014331AB11F6837431F6002E01F68F7
:101E1000B7431F60F0BD00002DE9F04786B00446CF
:101E20000D460026002700BFB146B246A88900B182
:101E300000BFA246268A4CF6FF700640E88806439B
:101E40002682A6894EF6F3100640A8882989084301
:101E5000698908430643A681A68A4FF6FF400640DB
:101E6000A8890643A68201A8FFF768FB54461F48CD
:101E7000824501D1049F00E0039FA08910F4004F28
:101E800008D007EBC70000EB071029684900B0FB3A
:101E9000F1F807E007EBC70000EB0710296889009D
:101EA000B0FBF1F86420B8FBF0F0060130096421C2
:101EB00001FB1089A08910F4004F09D0322101EBF9
:101EC000C9006421B0FBF1F000F00700064308E010
:101ED000322101EB09106421B0FBF1F000F00F009A
:101EE0000643268106B0BDE8F087000000380140B7
:101EF00001468888C0F308007047C1F30802828059
:101F0000704700BFFEE700007CB504460D4672B680
:101F1000FEF78AFED4E90001CDE900010448FEF78E
:101F200011FE022269460248FEF760FE62B67CBDE1
:101F300000F803080FB410B504A9074B02AA0398D0
:101F400000F01CF8044602A9002000F0C1F9204668
:101F500010BC5DF814FB0000D122000802E008C8A4
:101F6000121F08C1002AFAD170477047002001E013
:101F700001C1121F002AFBD1704700002DE9FF4F5D
:101F80008DB005468846002669E125287ED10024CB
:101F90006D1CB949A146A24601222B78203B02FACA
:101FA00003F0084202D004436D1CF6E728782A2883
:101FB00016D158F8049BB9F1000F03DA44F4005429
:101FC000C9F1000944F002046D1C10E009EB89001E
:101FD00002EB400044F0020401EB00096D1C01E03B
:101FE0006FF02F022978A1F130000928EED9287866
:101FF0002E2818D115F8010F44F004042A280BD11B
:1020000058F804AB6D1C0EE00AEB8A0002EB4000AE
:1020100001EB000A6D1C01E06FF02F022978A1F19D
:1020200030000928F0D928786C280ED008DC4C281C
:1020300016D068280CD06A2813D144F400140FE09D
:1020400074280DD07A280CD10AE044F4801401E001
:1020500044F440146978814202D16D1C04F5801467
:102060006D1C2878692806D017DC002876D06328F4
:1020700043D064288AD10A2758F8040BC4F30251CC
:10208000032900D100B2042902D100E0EFE040B200
:10209000002871DA40422D2171E06E2810D073289B
:1020A00036D07528E6D10A2758F8040BC4F302513C
:1020B000032900D180B2042900D1C0B2002161E01F
:1020C000C4F30250022806D1D8F80010F217C1E973
:1020D000006240460EE0032804D1D8F800104046C4
:1020E0000E8007E00428D8F80010404601D10E7099
:1020F00000E00E6000F10408B0E058F8041B8DF811
:102100002C1000208DF82D000DF12C0B012003E088
:1021100058F804BB4FF0FF3061074FF000070AD5B5
:1021200000E07F1C57450EDA8742FADB1BF80710E8
:102130000029F6D107E000E07F1C8742FCDB1BF89A
:1021400007100029F8D1DDE90F23A9EB0709214683
:10215000484600F0A6F83044C61905E083E0DDE902
:102160000F121BF8010B90477F1EF8D2DDE90F23F9
:10217000214648466FE0FFE7210505D52B218DF864
:102180000C100121019103E0E10797D02021F6E72F
:102190000DF1300B08E03946FEF74AF8ABF10102C9
:1021A00001F13001934611700028F4D104A9A1EB8C
:1021B0000B0000F120000290600702D524F4803467
:1021C00001E04FF0010A029A0020924501DDAAEBDE
:1021D00002008246019910440144A9EB01000C90D1
:1021E000E00306D4DDE90F2321460C9800F059F8EE
:1021F000064400270DF10C0906E0DDE90F1219F87D
:1022000007009047761C7F1C01988742F5DBE003AE
:102210000CD5DDE90F2321460C9800F042F8064466
:1022200004E0DDE90F1230209047761CBAF100007F
:10223000AAF1010AF5DC05E0DDE90F121BF8010B3C
:102240009047761C0298411E02910028F4DCDDE9DB
:102250000F2321460C9800F011F806446D1C2878D5
:1022600000287FF492AE304611B0BDE8F08FDDE972
:102270000F129047761CF1E7092801002DE9F04183
:102280000446002517461E46880407D504E0394653
:102290002020B04705F10105641EF8D52846BDE8A9
:1022A000F0812DE9F04104460025302790461E4676
:1022B000C80300D42027880407D404E041463846E8
:1022C000B04705F10105641EF8D52846BDE8F08148
:1022D0000A68531C0B6010707047F0B5024600206E
:1022E000002323E0D75C00241AE0C0F38015FE0928
:1022F00095EA060C08D080F004004FEA406C4FEAE3
:102300001C6040F0010003E04FEA406C4FEA1C60A3
:1023100004F1010C0CF0FF044FEA476C4FEA1C6714
:10232000082CE2DB03F1010C0CF0FF038B42D9DB3C
:10233000F0BD70B504460D4600BF14B900BF00BF24
:1023400070BD00BF206A58B1206A007B082807D101
:102350002868216A496A884202D1204600F072F951
:10236000EEE77CB5044600BF14B900BF00BF7CBDDA
:1023700000BF266A00BF16B900BF00BFF7E700BF65
:10238000706B401C0ED0706B1E303C21B0FBF1F521
:10239000B5F5803F01D34FF6FF75B583B08B08B913
:1023A0000120B083B06B401C0ED0B06B1E303C21BE
:1023B000B0FBF1F5B5F5803F01D34FF6FF75F5831E
:1023C000F08B08B90120F083B08BF18B884204DBDD
:1023D000F08B002801DD0020B083B07B10B1B06A23
:1023E000019010E096F824007F2802DCFF21019183
:1023F00008E0C02803DB6FF07F41019102E04FF657
:10240000FF71019100BFF06A0090BDF1000001D0A2
:10241000009838B9706A019908400090009840F01F
:102420008070009006F12401204605F0EDFD01A921
:10243000204605F02DFE6946204605F0DEFD2046CB
:1024400005F02CFE0A21304600F026FF8FE72DE92B
:10245000F0410446256A0821284600F01DFF0022AD
:1024600005F12401204601F001FF0746687B401C6E
:1024700068734FF4FA7606F2F310314690FBF1F0F0
:102480006883BDE8F081000010B5114804681BE0C6
:10249000206AC0B1206AC08B216AC98B491E226A9A
:1024A000D183012803D1204600F0A6FF0BE0206A6B
:1024B000808B216A898B491E226A9183012802D16F
:1024C000204600F089FF2468002CE1D110BD0000F7
:1024D000EC0400202DE9F04104460D46164600BFED
:1024E0002CB900BF00BF6FF00D00BDE8F08100BF48
:1024F00000BF25B900BF00BF6FF00500F5E700BFC2
:1025000000BF286908B100BF00BF00BF00BF6869F5
:1025100008B100BF00BF00BF00224FF49A711046FF
:1025200005F061FE2861286910B94FF0FF30DCE743
:1025300000BF28694089B0F59A7F01D200BF00BF73
:1025400000BF687B20B93D480068401C3B490860DB
:102550003A48006828602869406868610120696914
:1025600008706969487094F82A00696988700020C9
:102570006969C870286805F019F969694860002020
:1025800069690881696948816969C860082E09D04C
:10259000042E07D0032E08D1287B052802D0287BE3
:1025A000042802D160686969C8600020696908610F
:1025B000696948616969886100270EE094F82A001A
:1025C000B84203DD04F12B00C05D00E00020C1B281
:1025D00068691C30C155781C87B2102FEED30027D4
:1025E00005E0002168692C30C155781C87B2402F66
:1025F000F7D3002705E0002168696C30C155781CCD
:1026000087B2802FF7D30E486969C1F8EC0000202B
:102610002883002704E06869F030C755781C87B22A
:10262000442FF8D301223521284600F057F93146CE
:10263000284600F06AF9002057E70000D80400207F
:10264000638253632DE9F8430446256A00260C2172
:10265000284600F021FE042229462046FFF73AFFD3
:102660000646FEB904223221284600F037F9686A8E
:1026700005F0AFF880460146284600F087F9284665
:1026800000F0C2F92A8BF03291B2286906F087F87F
:10269000009443230B4A296968680AF0CDFE284656
:1026A00000F012F8687B401C687342F2107707F262
:1026B000F3104FF4FA7190FBF1F068833046BDE8F7
:1026C000F8830000E4DB000810B5044600BF14B92D
:1026D00000BF00BF10BD00BF00BF206908B900BF28
:1026E00000BF00BF00BF606908B900BF00BF00BFE6
:1026F000206910B1206905F0AFFF00202061606102
:10270000E8E70000F8B50446256A00260020686264
:102710000621284600F0C0FD012229462046FFF789
:10272000D9FE0646002E30D102223921284600F07B
:10273000D5F8218D284600F050F90422372128468B
:1027400000F0CCF80121284600F0DFF803212846EC
:1027500000F0DBF81C21284600F0D7F806212846B7
:1027600000F0D3F8284600F04FF92A8BF03291B2EE
:10277000286906F014F8009443230F4A2969686811
:102780000AF05AFE2846FFF79FFF687B401C6873DB
:10279000687B062803DA697B0120884000E03C2042
:1027A0004FF47A71484387B207F2F310491090FB57
:1027B000F1F068833046F8BDE4DB000810B50F483F
:1027C000046818E0206AA8B1206A408B012805DD62
:1027D000206A408B401E216A48830BE0206A408BB0
:1027E000012807D1206A408B401E216A4883204679
:1027F00000F012FE2468002CE4D110BDEC0400208F
:1028000070B50446256A0020A862E8621848C078BE
:1028100010B11848C06828631548007918B11548E8
:102820000069686302E0286B4008686310484079DB
:1028300018B110484069A86301E0286BA863A86834
:10284000006968620A48807938B10A49886904F0E9
:10285000ADFFA8620120A87301E00020A87304481E
:10286000C07920B10349C86904F0A0FFE86270BDD7
:1028700008140020E013002070B50446256A2046A5
:1028800005F0A6FB0949204605F0BEFB0749204696
:1028900005F0B3FB0549204605F0FAFB0C2128465C
:1028A00000F0FAFC2046FFF72DFF70BDE0DB0008CA
:1028B00070B50446256A0748807850B10649886893
:1028C00004F074FF2862A86800696862204600F07E
:1028D00069FC70BD08140020E013002010B500BF93
:1028E000038B9B1C1344442B01D900BF00BF00BFC6
:1028F000048B631C03834369F0331955048B631CF9
:1029000003834369F0331A5510BD00BF028B442A7C
:1029100001D300BF00BF00BF038B5A1C0283426972
:10292000F032D15470472DE9F04705460E46706AE3
:10293000002829D0706AFDF74EFC07461FB3746A61
:10294000288BC0F1410900BF4F4501D900BF00BF2E
:1029500000BF4F4501D2384600E0484600F0FF086E
:1029600042460C212846FFF7B9FF04E014F8011B8A
:102970002846FFF7CAFF5FEA0800A8F1010101F04D
:10298000FF08F3D100BF00BFBDE8F08710B500BF5E
:10299000028B121D442A01D900BF00BF00BF0B0EDD
:1029A000048B621C02834269F0321355C1F3074362
:1029B000048B621C02834269F0321355C1F3072372
:1029C000048B621C02834269F0321355048B621C33
:1029D00002834269F032115510BD10B500BF028B61
:1029E000921C442A01D900BF00BF00BF0B0A048B10
:1029F000621C02834269F0321355048B621C02830D
:102A00004269F032115510BD00BF10B900BF00BFC0
:102A1000704700BF00BF416909B900BF00BF00BFD8
:102A200000BF018B442901D300BF00BF00BFFF22BC
:102A3000038B591C01834169F031CA5406E000221E
:102A4000038B591C01834169F031CA54018B44291D
:102A500003D3018B11F0030F02D0018B4429EED375
:102A6000D6E700002DE9F34F89B00C46002007900F
:102A700006900A21E348FDF7A2FB60892C2804DABE
:102A80006FF001000BB0BDE8F08F606809998860B5
:102A90004FF0F008B4F8089000BF08940EE00898D2
:102AA0004089A8EB00001FFA80F808984089A9EB3C
:102AB00000001FFA80F9089800680890089818B17B
:102AC000089840894045EADD089810B96FF0010088
:102AD000D8E746464F46089845685DE1A85D0590F1
:102AE000002003904FF0FF3AB01C80B2029008988B
:102AF0004189701C814202DD285C04900AE008983C
:102B0000006820B1089800684068007800E0002064
:102B1000C0B2049004980390059834286AD00BDC66
:102B2000032825D003DC80B1012870D113E00628EA
:102B30002ED03328F9D150E035286CD0362877D004
:102B40003A2867D03B28F0D18CE000200490039015
:102B5000701E86B296E000BF0498042804D000BF1F
:102B600000BF6FF005008DE700BF4FF0060A89E057
:102B70000420039000BFDDE90310884204DA00BF9F
:102B800000BF6FF005007DE700BF4FF0070A79E056
:102B900000BF0498C11700EB91718910B0EB81015F
:102BA00004D000BF00BF6FF005006BE700BF0498C2
:102BB000082801DA049800E00820C0B2039000BFA2
:102BC000DDE90310884204DA00BF00BF6FF00500A2
:102BD00058E700BF4FF0080A54E000BF04980428EB
:102BE00004D000BF00BF6FF005004BE700BF4FF0FF
:102BF000030A47E000BF0498012804D000BF00BFCB
:102C00006FF005003EE700BF4FF0000A3AE036E003
:102C100001E00DE019E000BF0498012804D000BFD6
:102C200000BF6FF005002DE700BF4FF0010A29E05B
:102C300000BF0498042804D000BF00BF6FF0050057
:102C400020E700BF4FF0020A1CE000BF04980428F0
:102C500004D000BF00BF6FF0050013E700BF4FF0C6
:102C6000040A0FE000BF0498042804D000BF00BF8E
:102C70006FF0050006E700BF4FF0050A02E00020F4
:102C8000039000BF00BF0498801C304486B20398B4
:102C9000002864DD0020019000BF00BFBAF1000FE2
:102CA00002DBBAF10A0F01DB00BF00BF00BF5548CD
:102CB00010F80A00002851D10398042801DA03987B
:102CC00000E004201FFA80FB5A4601A9029B0898E5
:102CD00005F075FC0398042823DD00BF0398C11795
:102CE00000EB91718910B0EB810104D000BF00BFEF
:102CF0006FF00500C6E600BF0120424901F80A0056
:102D0000019804F053FD404941F82A000398001F40
:102D1000C0B203900298001D80B202900AF1010A2D
:102D2000BBE70398042804D1019804F052FD0190F8
:102D30000CE000BF0398012804D000BF00BF6FF073
:102D400005009FE600BF9DF80400019001202D4979
:102D500001F80A002C49019841F82A0000BF0898A0
:102D60004089B04217DC08984089301A86B208982A
:102D70004089381A87B2BE420CDA5FB10898006801
:102D8000089000BF089808B900BF00BF00BF0898AE
:102D9000456800E008E000BF089828B1A85DFF285A
:102DA00002D0BE42FFF69AAE00BF16480078A0B12E
:102DB000154908680021134A1170012802D1012128
:102DC000079109E0022802D10121069104E00328BD
:102DD00002D101210691079100BF079830B1002070
:102DE00007904FF06C084FF0EC0956E6069830B1AA
:102DF000002006904FF02C084FF06C094DE60020A3
:102E000040E6000008140020E0130020F8B5044656
:102E1000256A0421284600F03FFA0322294620466D
:102E2000FFF758FB0646FEB9022239212846FFF774
:102E300055FD218D2846FFF7D0FD21462846FFF796
:102E400072FD2846FFF7E0FD2A8BF03291B2286927
:102E500005F0A5FC009443230F4A296968680AF02D
:102E6000EBFA2846FFF730FC687B401C6873687BF0
:102E70000A2804DA687B4FF47A71484301E042F291
:102E8000107087B207F2F3104FF4FA7190FBF1F073
:102E900068833046F8BD0000E4DB00082DE9F84304
:102EA0000446256A0321284600F0F6F90322294644
:102EB0002046FFF70FFB06464EBB0222392128466B
:102EC000FFF70CFD4FF410712846FFF786FD042232
:102ED00032212846FFF702FD686A04F07AFC80463A
:102EE00001462846FFF752FD2846FFF78DFD2A8B45
:102EF000F03291B2286905F052FC00944323104A45
:102F0000296968680AF098FA2846FFF7DDFB687BB4
:102F1000401C6873687B0A2804DA687B4FF47A7176
:102F2000484301E042F2107087B207F2F3104FF409
:102F3000FA7190FBF1F068833046BDE8F883000039
:102F4000E4DB00082DE9F05F044615460A9E27469B
:102F50003C46D7F82080D5F8049000BFD8F8080088
:102F600008B100BF00BF00BF68892C2800DA74E0F8
:102F700099F80000022800D06FE04FF0000B0EE03F
:102F800007F12B0010F80B1009F11C0010F80B00D2
:102F9000814200D061E00BF1010000F0FF0B97F8D7
:102FA0002A005845ECDCD9F8040004F012FCD8F8EB
:102FB0000010884200D050E029464046FFF752FDFD
:102FC00000B14AE02948407800B946E02848406806
:102FD00000F0FF0ABAF1050F1AD198F80C00012889
:102FE00006D13846FFF70CFC3846FFF730FA33E0DD
:102FF00098F80C00032807D098F80C00042803D098
:1030000098F80C00052827D13846FFF7AAF923E0E5
:10301000BAF1060F13D198F80C0003280BD098F8DA
:103020000C00012807D098F80C00042803D098F869
:103030000C00052803D13846FFF71EFC0CE0BAF15E
:10304000020F09D198F80C00062805D10020A8F835
:103050001A003846FFF72CFC00BF0020C8F8080013
:10306000284605F0F9FABDE8F09F0000081400209A
:10307000E0130020F8B50446256A0021284600F038
:103080000BF9002028626862A862E862A86368639E
:103090002863072229462046FFF71CFA06469EB9F8
:1030A0002846FFF7B1FC2A8BF03291B2286905F06F
:1030B00076FB0094432305F12002296968680AF031
:1030C000BBF92846FFF700FB687B401C6873687BF0
:1030D0000A2804DA687B4FF47A71484301E042F22F
:1030E000107087B207F2F3104FF4FA7190FBF1F011
:1030F0006883204604F06CFF0649204604F084FFF4
:103100000449204604F079FF0249204604F0C0FF3C
:103110003046F8BDE0DB0008F8B50446256A052115
:10312000284600F0B9F8032229462046FFF7D2F9D5
:10313000064606BB022239212846FFF7CFFB218D28
:103140002846FFF74AFC21462846FFF7ECFB2846B5
:10315000FFF75AFC2A8BF03291B2286905F01FFB69
:103160000094432305F12002296968680AF064F994
:103170002846FFF7A9FA687B401C6873687B0A2819
:1031800004DA687B4FF4FA61484301E044F62060BA
:1031900087B207F2F3104FF4FA7190FBF1F06883F5
:1031A0003046F8BD2DE9F8430446256A012128463A
:1031B00000F072F8032229462046FFF78BF90646F5
:1031C000002E4ED1022239212846FFF787FB218DA0
:1031D0002846FFF702FC042232212846FFF77EFB37
:1031E000686A04F0F6FA804601462846FFF7CEFBEF
:1031F000042236212846FFF771FB286A04F0E9FA19
:10320000804601462846FFF7C1FB042237212846A5
:10321000FFF764FB01212846FFF777FB03212846CF
:10322000FFF773FB1C212846FFF76FFB062128469A
:10323000FFF76BFB21462846FFF775FB2846FFF793
:10324000E3FB2A8BF03291B2286905F0A8FA0094CA
:103250004323104A296968680AF0EEF82846FFF708
:1032600033FA687B401C6873687B062803DA697B45
:103270000120884000E03C204FF47A71484387B237
:1032800007F2F310491090FBF1F068833046BDE877
:10329000F8830000E4DB0008027B8A4203D001735C
:1032A000002242734283704770B50446002600BF77
:1032B00024B900BF00BF6FF00D0070BD00BF54F80F
:1032C000205F607C20F008006074607CA4F1200422
:1032D00010F0200F02D16FF00D00EEE7208DB0F559
:1032E000107F02DA4FF0FF30E7E74DB93C2004F0E1
:1032F00081FB054615B94FF0FF30DEE7256210E08F
:10330000686810B168680AF053F800BF286908B10E
:1033100000BF00BF00BF00BFA86808B100BF00BF6A
:1033200000BF3C212846FCF74AFF0AF003F868601A
:10333000686810B94FF0FF30BFE76868007A40F066
:1033400020006968087244221049686809F0DAFCB4
:1033500043220E49686809F06DFE22460C496868F0
:103360000AF022F82046FFF7CDF906462EB1204696
:1033700000F010F84FF0FF309FE794F8310040F074
:10338000080084F83100304697E70000E0DB0008D1
:10339000452F000870B5054600BF15B900BF00BF36
:1033A00070BD00BF2C6A95F8310020F0080085F848
:1033B000310084B1606820B1606809F0F9FF002035
:1033C000606000BFA06808B100BF00BF00BF00215F
:1033D0002046FFF761FFE3E770B50446256A287BC6
:1033E000012805D0287B0A2802D0287B052802D195
:1033F0002046FFF791FE70BD70B50446256A287B14
:10340000012805D0287B0A2802D0287B052802D174
:103410002046FFF7FBFC70BD70B50446256A287B8B
:103420000C2802D0287B062803D12046FFF76AF932
:1034300043E0287B01280DD1687B052803DC20466A
:10344000FFF7B0FE39E02046FFF714FE2046FFF7F5
:1034500059F932E0287B08280AD1687B012803DC6F
:103460002046FEF7F4FF28E02046FEF77AFF24E02E
:10347000287B052803D12046FFF74EFE1DE0287B60
:1034800004280DD1687B082803DC2046FFF7BEFC2A
:1034900013E02046FFF7EEFD2046FFF733F90CE07E
:1034A000287B032809D1687B022803DA2046FFF72E
:1034B000F5FC02E02046FFF725F970BDF0B587B0B6
:1034C00004460E46324601A9204602F0CEFA0122F9
:1034D00001A9204601F060FA18B14FF0FF3007B0A3
:1034E000F0BD01A9204602F08AFA0746012201A98F
:1034F000204601F051FA10B14FF0FF30EFE73A46A5
:103500003146204601F0F7F9054603E020460399CD
:1035100002F028F9681C0546024601A9204601F080
:103520000DFA0028F2D00020D9E770B506460C4607
:1035300015460B222146284604F0C9F90020E07206
:1035400020736073E0812082208A60820020A08244
:10355000E089E082208A208300206083E06170BDE2
:103560002DE9F04104460E461546296802222068DE
:1035700004F0F4FD0746287907EB4011202230467D
:1035800004F0A5F93946206804F024FEBDE8F08176
:10359000F0B589B004460D46174600262AE004EB34
:1035A0004611202201A8FCF7F1FD9DF80F0000F064
:1035B0000F000F281CD00B22294601A805F096FE0B
:1035C000B0B907B13E7117B19DF80F007871BDF821
:1035D0001E00BDF8181010EB014002D1012009B007
:1035E000F0BDBDF81E00BDF8181000EB0140F6E775
:1035F000701CC6B2102ED2DB0020F0E770B588B088
:1036000004460D46002619E004EB461120226846C8
:10361000FCF7BCFD9DF80B0000F00F000F280BD04D
:103620009DF8000018B19DF80000E52804D105B10F
:103630002E71012008B070BD701CC6B2102EE3DBE5
:103640000020F7E72DE9F04104460D4617461E46D7
:1036500016B1012E0CD106E03A4629462046FFF766
:1036600097FFBDE8F08139462046FFF7C7FFF8E72E
:103670000020F6E72DE9F84F04460D4616461F4692
:10368000DDF828800020009081462AE02946204667
:1036900002F08BF800EB090B01225946206804F078
:1036A0005DFD009043463A4631460098FFF7CAFF59
:1036B0005FEA000A0DD02FB12946204602F075F8C6
:1036C000484438602068009904F084FD5046BDE805
:1036D000F88F2068009904F07DFD09F1010000F0E9
:1036E000FF09A0794845D1DC0020F0E72DE9F0473B
:1036F00088B004460D4616461F46DDF840804FF060
:1037000000090596049600208DF8080006900390A5
:10371000012E08D843463A462946204600F01CF8B8
:1037200008B0BDE8F0870CE0CDF800803B462A46A3
:1037300020460499FFF79EFF5FEA000A01D0504639
:10374000EEE74A4609F1010902A9204601F0F6F820
:103750000028E9D00020E3E72DE9F04704460D46B4
:1037600016461F464FF0000994F83C00012806D089
:1037700094F83C00022802D00020BDE8F087D4F87D
:103780002C801DE001224146206804F0E7FC8146C0
:103790003B46324629464846FFF754FF5FEA000A97
:1037A00008D00EB1C6F800804946206804F012FD2A
:1037B0005046E2E74946206804F00CFD08F1010894
:1037C000A089C11700EBD161E26A02EB61114145AA
:1037D000D8D84946206804F0FDFC0020CDE7FEB5AE
:1037E00004460F4600260B21684604F067F80B21BB
:1037F000384604F063F8254620782F2800D16D1C48
:1038000006E00B223946684604F061F8701CC6B227
:103810006946284601F0C2FE0500F2D10EB1012032
:10382000FEBD0020FCE72DE9F04104460E4615469A
:1038300029680122206804F091FC0746287907EBEB
:10384000401120223046FCF7A1FC3946206804F0E4
:10385000C1FCBDE8F0812DE9F04104460D46164655
:1038600029680222206804F079FC0746287907EBD2
:103870004010C6613946206804F0ACFCBDE8F08118
:103880002DE9F04104460D461646296802222068BB
:1038900004F064FC0746300C297907EB411188825B
:1038A000297907EB41114E833946206804F092FCD8
:1038B000BDE8F0812DE9F04104460E461546296821
:1038C0000222206804F04AFC0746287907EB4011E1
:1038D0002022304603F0FBFF3946206804F07AFCD2
:1038E0000020BDE8F08170B505460C462C60002034
:1038F0002871284600F001F870BD70B50446052215
:103900000021206802F02BFE064600250CE04FF453
:10391000DF7303EB051204F1080000EB05113046DC
:1039200000F0ACFF681CC5B2042DF0DB3146206806
:1039300002F0B8FF70BD000010B500240748007801
:10394000012807D10548123000688047002003494C
:10395000087000E00624204610BD0000820500200B
:103960002DE9F04104460D4616461F464FF000086B
:10397000F4B91948194908601948091D086019481F
:103980000839086018480C3108600020091D0860DB
:10399000164817490860174817490860174818491A
:1039A00008603A463146284600F0BEF8804602E0FC
:1039B0004FF0020800BF00BFB8F1000F09D109F0B5
:1039C00021FF10B94FF0030803E001200349123929
:1039D00008704046BDE8F081053C000894050020D1
:1039E000293C0008B93B00087D3B0008D9D90008F4
:1039F000A4050020E1DA0008A80500206DDA00081F
:103A0000AC050020F8B500244248007808B1062033
:103A1000F8BD684609F0E6FE012878D19DF800005F
:103A2000052873D2DFE800F0030416556E006DE040
:103A3000384A0832911F081D00F114031B6898478B
:103A400004461CB9022009F0E5FE02E0042009F05A
:103A5000E1FE5BE02F4808300088FF2834DC2D4869
:103A6000083000882C490860FF202C490870552038
:103A700048702B48007888702A488078C870294898
:103A8000C0780871274800794871234802682148A6
:103A9000801C01682148801DFCF778FB24211F4A07
:103AA0001D480068801D11540D211B480068C01D71
:103AB00011540A2219491848006808300A54164857
:103AC0000068093014490860012012490A31087061
:103AD0001CE0012009F01AFE0E48801C09F042FD8E
:103AE00009F00AF9054609F001F906462A4609488F
:103AF000801C01683046074B0E331B68984704460C
:103B000004E004E0002009F001FE00BF00BF002037
:103B10007EE700008205002044000020700C002099
:103B200042000020840600202DE9F04104460D46A5
:103B300016460027FCF7BEFF3346082229462046DA
:103B400009F07CFE012801D0032710E0B5F5964F5F
:103B500002D94FF0230803E068000749B1FBF0F8F1
:103B60001FFA88F009F002FF012800D00327FCF7B4
:103B7000E7FF3846BDE8F081A07F17002DE9F0414E
:103B800007460C4615460026FCF794FF08480088B7
:103B9000042806DB00BF064800882880054820600E
:103BA00000E00526FCF7CCFF3046BDE8F0810000C0
:103BB000C205002085C300202DE9F04104460D46D2
:103BC00016460027102C02DD0220BDE8F081FCF72C
:103BD00071FF0B48007801280DD10948801C056051
:103BE000001D068001200649491E087001210020A1
:103BF00009F0BEFC00E00527FCF7A2FF3846E4E729
:103C0000BA05002010B5FCF755FF002005490870E3
:103C10000021012009F0ACFC09F046FDFCF790FF03
:103C200010BD0000BA05002010B5FCF743FF0021CD
:103C3000084609F09DFC09F0F5FCFCF781FF10BD7A
:103C400070B504460D462946204602F072F980BB45
:103C500000222146201D02F05AFD211D04F50970A5
:103C6000FFF741FE04F5097104F51B7004F088FAB2
:103C700094F97002401C10D10B214FF40C700155C7
:103C80000021C4F834124FF40E702168015104F57C
:103C9000097104F51B7004F073FA04F51B7104F547
:103CA0001D7001F0F1FE10B16FF0010070BD002039
:103CB000FCE7FFE74FF0FF30F8E700002DE9FC4795
:103CC00004460D46164600BF1CB900BF00BFBDE844
:103CD000FC8700BF70892A280EDA5948408C401CA6
:103CE00081B257484184C08B401C81B25448C18383
:103CF000304604F0B1FCEAE7D6F8048008F10E077C
:103D00003888B0F5807F08D13879062805D17879D0
:103D1000042802D1788808280ED04948008D401C1C
:103D200081B247480185C08B401C81B24448C183A1
:103D3000304604F091FCCAE74148408B401C81B2F8
:103D40003F484183042207F10E0101A8FCF71EFA47
:103D5000042207F118016846FCF718FA201D01D06B
:103D6000606810B94FF0000908E000986168884267
:103D700001D1012000E0002000F0FF09B9F1000F9F
:103D800001D0012000E00220C3B207F1080201A91E
:103D9000204600F055FCF888B0F5807F03D0B0F5E0
:103DA000007F41D13BE0B9F1000F36D0022003F093
:103DB0000AFDF880042207F10E0107F11800FCF754
:103DC000E5F90422211D07F10E00FCF7DFF900BF21
:103DD00094F82A00062801D000BF00BF00BF0622C9
:103DE00007F1080107F11200FCF7D0F9062207F1EC
:103DF00008014046FCF7CAF90622294607F10800E7
:103E0000FCF7C4F90622294608F10600FCF7BEF9C2
:103E100031462046A269904700E000BF0BE001A9AF
:103E20002046FEF786FA06E00548808D401C81B2E8
:103E30000348818500BF00BF304604F00DFC46E713
:103E40005095002070B50446002512E005EB850072
:103E5000094901EB8000867C4EB105EB850001EB42
:103E600080008068A04202D1284600F0E1F8681C7A
:103E7000C5B20A2DEADB70BD6C9600202DE9FC5F0F
:103E800004460D460A260A27B0464FF000094FF0B7
:103E9000000A00200190B346009000BF67E009EBE4
:103EA0008900624A02EB8000817CB8F10A0F03D1DD
:103EB00011B94FFA89F856E0002954D000BF012902
:103EC00003D0022901DA00BF00BF00BF64B109EBD3
:103ED0008902564B03EB820220685268904203D15C
:103EE0004FFA89F0BDE8FC9F012928D109EB890030
:103EF0004E4A52F8200088B109EB890002EB80009D
:103F0000C07C009A90422EDB4FFA89FB09EB8900B6
:103F1000464A02EB8000C07C009024E009EB890057
:103F2000424A02EB8000C07C50451CDB4FFA89F608
:103F300009EB890002EB800090F813A013E002293E
:103F400011DB09EB8900394A02EB8000C27C019841
:103F5000824208DB4FFA89F709EB8900334A02EB0A
:103F60008000C07C019009F1010000F0FF09B9F167
:103F70000A0F94DB15F0020F05D1B8F10A0F05D135
:103F800015F0010F02D14FF0FF30ABE7B8F10A0F87
:103F900002DA08F0FF0925E00A2F0BDA07F0FF0923
:103FA00000BF09EB8900214951F8200008B100BF8A
:103FB00000BF0DE00A2E02DA06F0FF0908E0BBF1AF
:103FC0000A0F02DA0BF0FF0902E04FF0FF3089E739
:103FD00000BFB9F10A0F01DB00BF00BF00BF4846B8
:103FE00000F026F800BFB9F10A0F01DB00BF00BFE7
:103FF00000BF00BF09EB89000C4901EB8000807C09
:1040000008B100BF00BF00BF34B109EB8901074A06
:1040100002EB810120684860002009EB8901034A16
:1040200002EB8101C8744FFA89F05BE76C960020BF
:1040300010B5044604EB84000C4951F8200060B12F
:1040400004EB8401094A52F8210004F005FB00202A
:1040500004EB8401054A42F82100002004EB8401AE
:10406000024A02EB8101887410BD00006C960020AA
:104070002DE9FC4704460D461646B04600BF0CB974
:1040800000BF00BF00BF00BF0DB900BF00BF00BF31
:1040900000BF0EB900BF00BF00BF0E21284604F0CC
:1040A00038FB40B14D484089401C4C4948816FF075
:1040B0000100BDE8FC872146306802F0A3FC08B18E
:1040C000474F83E0306800F0F000E02815D1012070
:1040D0008DF8000000208DF801005E208DF80200B0
:1040E000707800F07F008DF80300B0788DF8040040
:1040F000F0788DF805006F4667E03068A1680840E9
:10410000D4E901121140884210D0306880B2A0F585
:104110007E41A9390AD014F10C0004D0E06810B136
:1041200004F10C0802E06FF00300C2E72D480078AC
:1041300000EB80002C4901EB8000807C022818DB1A
:104140002849097801EB8101274A02EB8101D8F85F
:104150000000496888420CD12048C08D401C81B2C3
:104160001E48C1851F4802782946204600F03EF8C7
:104170009FE74FF000091FE009EB89001A4901EBA6
:104180008000807C022813DB09EB8901164A02EBD0
:104190008101D8F800004968884209D1114981F8A5
:1041A000009009F0FF022946204600F01FF880E742
:1041B00009F101004FFA80F9B9F10A0FDCDB2A4658
:1041C0004146204600F052F873E700BF3B4604F139
:1041D0002B022946204600F0CBF96AE750950020D3
:1041E000E8DB0008620500206C96002070B50446EC
:1041F0000D46164600BF06EB86001B4901EB80000A
:10420000807C022801DA00BF00BF00BF06EB8600F9
:10421000154901EB8000807C022817D106EB86004F
:1042200001EB8000C07CE42810DB06EB86000A4628
:1042300002EB8000011D204600F084F930B9032014
:1042400006EB8601084A02EB8101887406EB8600C2
:10425000054901EB800000F10C0304F12B02294613
:10426000204600F085F970BD6C9600202DE9F05FC6
:1042700004460D46164604F12B074FF0FF38214641
:10428000286802F0BFFB38B9286800F0F000E02889
:1042900002D00DB1286818B96FF00D00BDE8F09F8D
:1042A00001212846FFF7EAFD8146B9F1000F08DA3F
:1042B0002EB15E48808C401C81B25C4881844846A7
:1042C000ECE709EB89005A4901EB8000807C30B9AA
:1042D000012009EB8901564A02EB8101887400BF75
:1042E00009EB8900524901EB8000807C012808D04D
:1042F00009EB890001EB8000807C022801DA00BF15
:1043000000BF00BF09EB8900494901EB8000807CB8
:10431000012800D03EB92946204600F013F9804616
:104320000EB94046BAE700BF0EB900BF00BF00BFDC
:1043300009EB89003E4901EB8000807C022810DBFC
:104340003C4981F8009009EB8900394901EB800074
:1043500000F10C033A463146204600F009F9804648
:1043600062E009EB8900324901EB8000807C012882
:104370005AD14FF0000BB24615E000BFBAF80A0060
:10438000BAF80810884204D1DAF8000008B100BF7A
:1043900000BF00BF9AF80C00012802D04FF0010BBB
:1043A00004E0DAF800A0BAF1000FE6D100BFBBF1DB
:1043B000000F14D0BAF808100022032003F013FFF6
:1043C0008246BAF1000F0ED03146504604F085F80F
:1043D00048B1504604F040F94FF0000A03E0B246FD
:1043E000504604F035FABAF1000F14D009EB8900F9
:1043F0000F4951F8200030B109EB89010C4A52F8FD
:10440000210004F029F909EB8900094941F820A0AD
:104410004FF0000807E00548808C401C81B203483B
:1044200081844FF0FF3800BF404637E750950020A9
:104430006C960020620500202DE9FE4F04460D46D3
:1044400016461F46DDE90D9ADDF830800020029007
:1044500000BF0CB900BF00BF00BF00222A2103200B
:1044600003F0C1FE8346BBF1000F09D13448808CB4
:10447000401C81B2324881844FF0FF30BDE8FE8F8E
:1044800000BFBBF80A002A2801DA00BF00BF00BF46
:10449000DBF80410019101990E3100910F9803F09F
:1044A00092F90099C88000BF94F82A00062801D02C
:1044B00000BF00BF00BF0622394600980830FBF756
:1044C00065FE0622494600981230FBF75FFE062281
:1044D00031460198FBF75AFE062229460198801DB5
:1044E000FBF754FE0422414600980E30FBF74EFEC7
:1044F0000422514600981830FBF748FE4FF48071B3
:1045000000980180082000994880062100980171D8
:104510000421009841714FF4C1610198818159468D
:104520002046A269904702900548008B401C044930
:104530000883584604F090F84FF0000B02989DE76E
:10454000509500207FB504460D4601230649201DE5
:104550008DE82300039304F12B03044A19462046F7
:10456000FFF76AFF04B070BDEEDB0008E8DB00086F
:104570002DE9F04104460D46174698466E6800BF87
:1045800094F82A00062801D000BF00BF00BF062211
:1045900041463046FBF7FAFD06223946B01DFBF7CF
:1045A000F5FD0820B08129462046A2699047BDE864
:1045B000F081000070B500243DE004EB84001F4949
:1045C00001EB8000857C25B304EB840001EB8000C7
:1045D000C07C401C04EB8401184A02EB8101C874C2
:1045E00004EB8400114601EB8000C07CF0280DDA5A
:1045F00004EB840001EB8000807C01280AD104EBED
:10460000840001EB8000C07C022803DB2046FFF71A
:104610000FFD0EE004EB8400084901EB8000807C74
:10462000032806D1022004EB8401044A02EB810135
:104630008874601CC4B20A2CBFDB70BD6C9600206D
:104640002DE9F04704460D4616461F4600BF94F874
:104650002A00062801D000BF00BF00BF5DB1286856
:1046600048B12146286802F0CDF920B9286800F049
:10467000F000E02803D16FF00D00BDE8F087394667
:104680002846FFF7FBFB8046B8F1000F01DA4046F1
:10469000F3E7022008EB88011B4A02EB81018874D2
:1046A00008EB8800114601EB8000846008EB88016C
:1046B00002EB810101F10C0006223146FBF766FD99
:1046C000002008EB8801104A02EB8101C87408EB56
:1046D0008800114651F8200098B108EB880051F885
:1046E0002090002008EB880142F82100334604F1B5
:1046F0002B0249462046FFF73BFF484603F0ACFF3C
:1047000000BF0020B9E700006C9600202DE9F041C1
:1047100004460D464FF00E0860890E280BDC344825
:10472000008D401C81B232480185C08B401C81B293
:104730002F48C18356E06668B789307810F0010FC2
:1047400016D03078012809D1707888B9B0785E2801
:104750000ED1607B40F01000607309E0062225490D
:104760003046FBF740FD18B9607B40F008006073ED
:10477000082F03D0B7F5C16F24D116E095F83100AA
:1047800010F0200F00D12DE0C8F1000001B220464A
:1047900003F0BFFF20B100BF00BF00BF00BF21E09A
:1047A0002946204602F048FA18E095F8310010F04A
:1047B000200F00D116E0224605F12B012846FFF715
:1047C0007DFA0BE00A48008D401C81B20848018543
:1047D000C08B401C81B20648C18303E000BF0020AB
:1047E000BDE8F081204603F037FF0020F8E7000025
:1047F00050950020E8DB000870B5054600BF0DB9F4
:1048000000BF00BF00BF082003F0F4F8044614B94D
:104810004FF0FF3070BD0AA06862EC61732085F82C
:104820003200742133204155074868610748A86168
:1048300005F12B002060284602F010FF0020E9E778
:10484000776A775F6970000071400008357700086B
:1048500070B50446204602F047FF064616B94FF0F1
:10486000FF3070BD214630462269904705461DB194
:10487000304603F0F1FE00262846F2E770B5044604
:104880000E461546605D3070601940787070601992
:104890008178B1706019C178F17060190079307158
:1048A00060194079707160198179B1716019C179AD
:1048B000F1716019082100F00FF8B06060190C2147
:1048C00000F00AF8F06070BD0246505C53185B7847
:1048D00000EB032080B270470246C81C105C030640
:1048E000881C105C03EB0043481C105C03EB0023A6
:1048F000505C184470472DE9F04186B004460D46DF
:1049000016460027B84600208DF80000049001905C
:104910000290039504E00298B04201D1DDF80480D2
:104920003A467F1C6946204600F008F810B9B8F1F5
:10493000000FF0D0404606B0BDE8F08170B50446E7
:104940000D4616466868B04201D8A86828B900200C
:104950006860E868A860002028706868B04201D1EB
:10496000002070BD13E0287848B12878401E2870D8
:104970006868401C6860A868401CA86007E0294679
:10498000204600F072F910B14FF0FF30E9E7686897
:10499000B042E8D10020E4E72DE9FC5F04460D4673
:1049A0001646B0464FF0000AD34600200190E86852
:1049B000012802D830B2BDE8FC9F2946204601F00C
:1049C0001EF881464F467AE07F1C206A401CB842A0
:1049D0002AD8019818B34946204600F09EF9009065
:1049E00002222068009903F0B9FB8246204600F0BD
:1049F000BCF95346024649460090204600F088FA2A
:104A0000C5F810905146206803F0E4FBA6EB0801BE
:104A1000606B401A6063A6EB080000B2CBE7022788
:104A20000198401CC0B201903946204600F075F94B
:104A3000009001222068009903F090FB82465246C4
:104A40003946204600F0C1F8B8B94946204600F082
:104A500064F9009002222068009903F07FFB8346EE
:104A60005B463A464946204600F052FA59462068CD
:104A700003F0B0FBA8F10108B9465146206803F0E5
:104A8000A9FBB8F1000F1AD14946204600F045F9BC
:104A9000009002222068009903F060FB82462046C5
:104AA00000F063F95346024649460090204600F064
:104AB0002FFAC5F810905146206803F08BFBB8F12F
:104AC000000F81D1686910B16869304468610020C5
:104AD00071E770B586B004460E460025012E02D857
:104AE000002006B070BD00208DF8000004900190F9
:104AF0000290039600BF2A466D1C69462046FFF7C8
:104B00001DFF0028F7D0681EEBE72DE9F05F044693
:104B10000D464FF0000B2946204600F0FEF8824675
:104B20002089AAEB0000616A814202D9BAF1000F24
:104B300002D10020BDE8F09F01225146206803F019
:104B40000DFB064694F83C00012804D002282BD027
:104B5000032833D12DE005EB4500C0F3480916F8D2
:104B60000970A9F58070FF380DD13146206803F037
:104B700031FB01220AF10101206803F0EFFA064639
:104B800096F8008003E009F1010016F8008015F0A6
:104B9000010F04D108F00F0007EB002B03E04FEAF0
:104BA000081000EB271B09E005F0FF0936F819B0E3
:104BB00004E005F07F0956F829B000BF00BF314678
:104BC000206803F007FB5846B4E72DE9F84F044688
:104BD0000D4616460020009094F83C00012804D0B1
:104BE000022832D003283CD135E005EB4500C0F364
:104BF000480A16F80A80AAF58070FF3812D12946B3
:104C0000204600F08AF800F1010B01225946206885
:104C100003F0A4FA074697F800903946206803F09D
:104C2000D9FA03E00AF1010016F8009015F0010F1F
:104C300005D109F00F0008EB0020009004E04FEAD6
:104C4000091000EB281000900BE005F0FF0A36F881
:104C50001A00009005E005F07F0A56F82A0000903F
:104C600000BF00BF0098BDE8F88F2DE9F05F044653
:104C70000D464FF0000AA86818B94FF0FF30BDE8A4
:104C8000F09F2046A96800F048F806460122314608
:104C9000206803F063FA83465A462046A968FFF766
:104CA00094FF81464946204600F074F840B1A86858
:104CB00028615946206803F08DFA4FF0FF30DEE797
:104CC000C5F808906868401C6860A868471E07F12E
:104CD00001080AE047465A4639462046FFF775FF65
:104CE00080460AF101000FFA80FAA8F10100B842EB
:104CF00005D14146204600F010F8B042EAD0BAF1A2
:104D0000010001D5002001E0AAF1010028705946F8
:104D1000206803F05FFA0020B1E710B5024614895D
:104D200092F83C00012804D002280CD003281AD1A4
:104D300011E001EB4100830A506A984201D800203B
:104D400010BDE018FCE70B0A506A984201D8002019
:104D5000F6E7E018F4E7CB09506A984201D8002042
:104D6000EEE7E018ECE70020EAE7014691F83C00A6
:104D7000012804D0022805D0032809D105E040F617
:104D8000FF7070474FF6FF70FBE76FF07040F8E779
:104D90000020F6E7024692F83C00012804D00228E1
:104DA00009D0032816D10DE040F6F870814201D2F7
:104DB000002070470EE04FF6F870814201D20020CB
:104DC000F7E707E021F07040044B984201D2002041
:104DD000EFE700BF00BF0120EBE70000F8FFFF0F87
:104DE0002DE9F05F04460D46164629462046FFF79A
:104DF00094FF82462089AAEB0000616A814202D9B1
:104E0000BAF1000F01D1BDE8F09F0222514620689F
:104E100003F0A4F9074694F83C00012804D00228C6
:104E200062D0032872D168E005EB4500C0F3480961
:104E3000A9F58070FF3831D115F0010F02D107F8C4
:104E4000096009E017F8090000F00F00F02101EAFD
:104E50000611084407F8090029462046FFF75DFFC0
:104E600000F1010B02225946206803F077F98046D1
:104E700015F0010F09D198F8000000F0F000C6F31A
:104E80000321084488F8000003E0C6F3071088F8FF
:104E900000004146206803F09DF920E015F0010F65
:104EA0000ED107F8096009F10100385C00F0F0004C
:104EB000C6F303210844C1B209F1010039540EE0E0
:104EC00017F8090000F00F00F02101EA061108446C
:104ED00007F80900C6F3071009F1010178543946B3
:104EE000206803F077F911E005F0FF0927F8196051
:104EF0003946206803F06EF908E005F07F0947F8AD
:104F000029603946206803F065F900BF00BF7AE7E1
:104F10002DE9F04704460D4616461F4694F83C001E
:104F2000012804D002285ED0032866D160E005EB9A
:104F30004500C0F34808A8F58070FF3831D115F05E
:104F4000010F02D107F8086009E017F8080000F027
:104F50000F00F02101EA0611084407F8080029466D
:104F60002046FFF7DAFE00F1010A022251462068CE
:104F700003F0F4F8814615F0010F09D199F800000B
:104F800000F0F000C6F30321084489F8000003E0B4
:104F9000C6F3071089F800004946206803F01AF9A3
:104FA00020E015F0010F0ED107F8086008F10100AC
:104FB000385C00F0F000C6F303210844C1B208F1E8
:104FC000010039540EE017F8080000F00F00F0213E
:104FD00001EA0611084407F80800C6F3071108F1B2
:104FE0000100395409E005F0FF0827F8186004E0D3
:104FF00005F07F0847F8286000BF00BFBDE8F087D4
:1050000010B5044600F02FFD98B100206082012108
:10501000204600F0A3FA28B1E06CE061608A2083AA
:105020000020E08204F120022146A06AFEF742FC43
:105030000AE00121204600F091FA28B104F1200194
:10504000E26CA06AFEF707FC5021204602F036FC15
:1050500000221146204600F035FB002201212046A7
:1050600000F030FB002010BD2DE9F0418EB0044669
:105070000D4616461F4601A93046FEF7B0FB612FCC
:105080007ED0722F02D0772F7BD122E000230CAA92
:105090003146284600F0EBFB012817D10CAA214627
:1050A0002846FEF7C0FB0CAA2946204600F05DFA10
:1050B00001220021204600F005FB002201212046AC
:1050C00000F000FB00200EB0BDE8F0814FF0FF3093
:1050D000F9E76B460CAA3146284600F0C8FB0128C8
:1050E00015D10CAA21462846FEF79DFB0CAA29469D
:1050F000204600F03AFA01220021204600F0E2FAB0
:1051000001221146204600F0DDFA0020DBE700987E
:1051100010B96FF00300D6E700230CAA31462846E9
:1051200000F024FC002844D001AA04A92846FEF778
:10513000FCF90CAA04A92846FEF712FA20222146FF
:1051400004A802F0C4FB0CAA2946204600F00DFA80
:10515000A06A00F085FC80464146A06A00F06DFC24
:105160000090A06A04F12001009AFEF789FB204616
:10517000009900F000FD04F12C012846009A01E09E
:105180001AE0ABE000F071FC2846FFF7EEFD804628
:10519000024628460099FFF723FE012200212046FF
:1051A00000F090FA01221146204600F08BFA002010
:1051B00089E76FF0020086E700230CAA31462846F3
:1051C00000F055FB01283BD10CAA21462846FEF7EA
:1051D0002AFB0CAA2946204600F0C7F9A06B00BBA9
:1051E000A06A00F03DFC80464146A06A00F025FC24
:1051F0000090A06A04F12001009AFEF741FB2046CE
:10520000009900F0B8FC2846FFF7AFFD8046024643
:1052100028460099FFF7E4FD0CAA2946204600F035
:10522000A4F92046E16C00F05FFA0122002120463B
:1052300000F048FA01221146204600F043FA4BE004
:1052400000230CAA3146284600F090FB002840D0ED
:1052500001AA04A92846FEF768F90CAA04A9284661
:10526000FEF77EF92022214604A802F030FB0CAAAA
:105270002946204600F079F9A06A00F0F1FB80464B
:105280004146A06A00F0D9FB0090A06A04F1200119
:10529000009AFEF7F5FA2046009900F06CFC04F144
:1052A0002C012846009A00F0E0FB2846FFF75DFD40
:1052B0008046024628460099FFF792FD0122002110
:1052C000204600F0FFF901221146204600F0FAF9CD
:1052D00002E06FF00200F6E60020F4E66FF0030053
:1052E000F1E62DE9F04F87B004460D4616461F46FD
:1052F0004FF00008B146AA460021204600F02EF9E2
:1053000018B9002007B0BDE8F08FE06CA84201D8C2
:105310004FF00009A819E16C884205D9B9F1000FD6
:1053200002D0E06CA0EB050963E0A06A807940023E
:10533000BAFBF0F006904FEA5A21A06A8079B1FBDF
:10534000F0F200FB12100590CAF3080004900498D4
:1053500010B9B9F5007F0DD2CAF30800C0F500708E
:10536000484501D3484603E0CAF30800C0F5007081
:10537000029002E04FF400700290A06A04F12C0148
:10538000069AFFF7DBFA08B10020BBE7606B0390D9
:10539000A06A039900F009FA83460298B0F5007FED
:1053A00009D107EB0802059B0BEB0301A36A186800
:1053B00002F08FFE16E0059A0BEB0201A26A10685C
:1053C000012202F0CBFE019007EB0801CAF30803AB
:1053D000019A9818029A02F07AFAA16A086801996B
:1053E00002F0F8FE02988244029880440298A9EBE9
:1053F0000009B9F1000F98D1404683E72DE9FF4F2E
:1054000087B004460D461E46DDF824904FF0000A92
:1054100003950021204600F0A1F820B1012120468B
:1054200000F09CF818B900200BB0BDE8F08FE06CDC
:10543000A84200D2E56C29462046099A00F00BF9F3
:105440000690069840B1A06A04F12C01069AFFF775
:10545000A3FA08B10020E7E771E0A06A8079410271
:105460000398B0FBF1F005900398410AA06A807997
:10547000B1FBF0F200FB12170398C0F30808B8F173
:10548000000F02D1B9F5007F10D20398C0F30800D5
:10549000C0F50070484501D3484604E00398C0F3C6
:1054A0000800C0F5007080B2029002E04FF4007076
:1054B0000290A06A04F12C01059AFFF73FFA50B15F
:1054C000E06C5044E06404F12001E26CA06AFEF755
:1054D000C2F95046A8E7606B0490A06A049900F0F6
:1054E00064F983460298B0F5007F08D106EB0A0202
:1054F0000BEB0701A36A186802F0FDFD16E00BEB49
:105500000701A26A1068022202F028FE0190039AA5
:10551000C2F30803019A991806EB0A00029A02F0F6
:10552000D6F9A16A0868019902F054FEDDE902107B
:1055300008440390029882440298A9EB0009B9F14B
:10554000000F8AD1E06C401B504505D2E06C411B36
:10555000AAEB01010844E064504665E7024692F870
:10556000440001238B401840704710B58162C36925
:10557000C3640023836413680362147924231C54D6
:10558000002380F82C30438B848A03EB044484632B
:105590000024C4630463846B446310BD70B5024689
:1055A0000B4600250026002403E020201855601C2F
:1055B000C4B20B2CF9DB002410782E280AD1187005
:1055C000701CC6B250782E2802D15870921C26E06A
:1055D000521C24E01BE010782E2803D115B90125B8
:1055E000082413E045B10A2C10DC107800F086F88E
:1055F0001855601CC4B209E0072C07DC107800F0D5
:105600007DF81855601CC4B2701CC6B2521C1078CC
:1056100028B11078202802D010782F28DBD1002E56
:1056200005DD107808B9104670BD501CFCE700205D
:10563000FAE72DE9F04104460D46164633462A4660
:105640002046A16CFFF74DFE0746A06C3844A064CD
:105650003846BDE8F0812DE9F04704460D46164670
:10566000A819E16C884229D9206C38B9A16BA06ACD
:10567000FFF72FFA8046C4F8408001E0D4F840805C
:10568000A06A8088A16A897900FB01F9E06C48442E
:10569000401EB0FBF9F0A8EB000000FB09F0E16C44
:1056A000711A2944884207D2A81908FB19004844F6
:1056B000401EB0FBF9F702E0002700E00027384663
:1056C000BDE8F08710B53AB190F8444001238B4013
:1056D0001C4380F8444006E090F8443001248C409C
:1056E000A34380F8443010BD0246D06C884202D3F8
:1056F0009164002070474FF0FF30FBE701462029FE
:1057000012DB03DD302901DA2D290DD1392901DD24
:10571000412909DB5A2903DD612901DA5F2903D117
:105720007A2903DD7E2901D058207047612905DBE5
:105730007A2903DCA1F12000C0B2F6E70846F4E7BD
:105740002DE9F04104460D46164633462A462046CA
:10575000A16CFFF753FE0746A06C3844A06438469E
:10576000BDE8F0812DE9F04104460D46002616E023
:105770002946204600F019F800EB060802224146AF
:10578000206802F0EBFC07464FF40071384602F047
:1057900095F83946206802F01DFD701C86B2A0798C
:1057A000B042E5DC0020BDE8F08170B5024692F819
:1057B0003C00032805D11489907A556A05FB004303
:1057C0000AE01589947A566A06FB04559089C41735
:1057D00000EB147405EB24138C1E907904FB00304D
:1057E00070BD30B583885C1E838904EB43138488C5
:1057F00093FBF4F1038A23B1038A4362002484619A
:1058000003E08369436200240482C38923B1C3890E
:1058100083620024446103E0436983620024C481FD
:105820000489837A456A03FB05430B44846AE21AC0
:105830008379B2FBF3F3036230BD40F6F572016A7F
:10584000914205D2012180F83C100022C2610DE096
:105850004FF6F572016A914205D2022180F83C10A0
:105860000022C26102E0032180F83C1070472DE95C
:10587000FF4F85B00C4615461E464FF0000AD34632
:1058800020782F280CD1059800F0B0F80746641C4A
:1058900006B13760207838B9022009B0BDE8F08F32
:1058A0000598076B06B1376033E0002300932B4661
:1058B0003A4602A90598FDF719FF5FEA000809D1E9
:1058C00002A94846FFF76AFE10B10EB10020306011
:1058D0000020E2E70AF1010000F0FF0A687910F009
:1058E000100F09D047464C4606B13760BBF1000F98
:1058F0000FD0002030600CE04FF0010B02A94846A9
:10590000FFF74CFE20B10EB1002030600020C4E74C
:105910004C4602A92046FFF741FE5FEA0009C4D1C8
:10592000BAF1000F00D1B8E7687910F0100F02D17A
:10593000BBF1000F01D10220AFE70120ADE790F8E5
:105940003C1003290BD10289837A816903FB012270
:10595000C1698B1E817903FB0121C16205E00289C7
:10596000837A018A03FB0121C1627047F0B585B0DB
:1059700004460D4616461F460020049004AB3246EE
:1059800029462046FFF773FF10B1002005B0F0BD97
:1059900001A92846FDF723FF08B90020F6E70123F7
:1059A0000093334601A92046049AFDF79FFE08B1F3
:1059B0000120EBE720460499FDF780FD08B10020A7
:1059C000E4E701230093334601A92046049AFDF73A
:1059D0008DFE08B10120D9E70020D7E710B50446B5
:1059E0000021A26A206802F098FB10BD014691F8E0
:1059F0003C00032801D1C86970470120FCE770B55D
:105A000004460D46A86818B9E868A86000206860D8
:105A1000286980B909E029786868084468602978AD
:105A2000A8680844A8600020287029462046FFF78F
:105A30001CF90028EFD0286970BD70B504460E46E9
:105A400009E0002231462046FFF75FF805460DB910
:105A5000304670BD761C206AB042F2D80020F8E7CC
:105A600001460220704700207047CA608A60002308
:105A70004B600B610B704B61704700B502461046DE
:105A8000FFF7B4FF106300BD70B504460D4628460D
:105A900000F01EF810B94FF0FF3070BD25602946A8
:105AA000204600F02EF8204600F06FF810B96FF095
:105AB0000100F2E72046FFF794FE2046FFF7BDFE07
:105AC0002046FFF73CFF2046FFF7D7FF0020E4E722
:105AD00070B5044605220021204602F03FFB054632
